{"abi":[{"type":"function","name":"addCommitment","inputs":[{"name":"cid","type":"string","internalType":"string"}],"outputs":[],"stateMutability":"nonpayable"},{"type":"function","name":"commitments","inputs":[{"name":"","type":"uint256","internalType":"uint256"}],"outputs":[{"name":"","type":"string","internalType":"string"}],"stateMutability":"view"}],"bytecode":{"object":"0x608060405234801561001057600080fd5b506104d7806100206000396000f3fe608060405234801561001057600080fd5b50600436106100365760003560e01c806349ce89971461003b5780636a023eef14610064575b600080fd5b61004e610049366004610162565b610079565b60405161005b919061017b565b60405180910390f35b610077610072366004610216565b610125565b005b6000818154811061008957600080fd5b9060005260206000200160009150905080546100a4906102e5565b80601f01602080910402602001604051908101604052809291908181526020018280546100d0906102e5565b801561011d5780601f106100f25761010080835404028352916020019161011d565b820191906000526020600020905b81548152906001019060200180831161010057829003601f168201915b505050505081565b600080546001810182559080527f290decd9548b62a8d60345a988386fc84ba6bc95484008f6362f93160ef3e5630161015e8282610387565b5050565b60006020828403121561017457600080fd5b5035919050565b600060208083528351808285015260005b818110156101a85785810183015185820160400152820161018c565b5060006040828601015260407fffffffffffffffffffffffffffffffffffffffffffffffffffffffffffffffe0601f8301168501019250505092915050565b7f4e487b7100000000000000000000000000000000000000000000000000000000600052604160045260246000fd5b60006020828403121561022857600080fd5b813567ffffffffffffffff8082111561024057600080fd5b818401915084601f83011261025457600080fd5b813581811115610266576102666101e7565b604051601f82017fffffffffffffffffffffffffffffffffffffffffffffffffffffffffffffffe0908116603f011681019083821181831017156102ac576102ac6101e7565b816040528281528760208487010111156102c557600080fd5b826020860160208301376000928101602001929092525095945050505050565b600181811c908216806102f957607f821691505b602082108103610332577f4e487b7100000000000000000000000000000000000000000000000000000000600052602260045260246000fd5b50919050565b601f82111561038257600081815260208120601f850160051c8101602086101561035f5750805b601f850160051c820191505b8181101561037e5782815560010161036b565b5050505b505050565b815167ffffffffffffffff8111156103a1576103a16101e7565b6103b5816103af84546102e5565b84610338565b602080601f83116001811461040857600084156103d25750858301515b7fffffffffffffffffffffffffffffffffffffffffffffffffffffffffffffffff600386901b1c1916600185901b17855561037e565b6000858152602081207fffffffffffffffffffffffffffffffffffffffffffffffffffffffffffffffe08616915b8281101561045557888601518255948401946001909101908401610436565b508582101561049157878501517fffffffffffffffffffffffffffffffffffffffffffffffffffffffffffffffff600388901b60f8161c191681555b5050505050600190811b0190555056fea26469706673582212200b7845aa9108dd1f5051b4141ecc87017caec528b4a2d6e926e942480b5379db64736f6c63430008150033","linkReferences":{}},"methodIdentifiers":{"addCommitment(string)":"6a023eef","commitments(uint256)":"49ce8997"},"id":23}