{"abi":[{"type":"constructor","inputs":[{"name":"_writer","type":"address","internalType":"address"}],"stateMutability":"nonpayable"},{"type":"function","name":"addProviderRetrievalResultStats","inputs":[{"name":"cid","type":"string","internalType":"string"}],"outputs":[],"stateMutability":"nonpayable"},{"type":"function","name":"providerRetrievalResultStats","inputs":[{"name":"","type":"uint256","internalType":"uint256"}],"outputs":[{"name":"","type":"string","internalType":"string"}],"stateMutability":"view"}],"bytecode":{"object":"0x608060405234801561001057600080fd5b506040516105ef3803806105ef83398101604081905261002f91610054565b600180546001600160a01b0319166001600160a01b0392909216919091179055610084565b60006020828403121561006657600080fd5b81516001600160a01b038116811461007d57600080fd5b9392505050565b61055c806100936000396000f3fe608060405234801561001057600080fd5b50600436106100365760003560e01c8063bec0bf8e1461003b578063c295be7114610050575b600080fd5b61004e610049366004610216565b610079565b005b61006361005e3660046102e5565b61013b565b60405161007091906102fe565b60405180910390f35b60015473ffffffffffffffffffffffffffffffffffffffff1633146100fe576040517f08c379a000000000000000000000000000000000000000000000000000000000815260206004820152601d60248201527f6f6e6c7920746865207772697465722063616e20616464207374617473000000604482015260640160405180910390fd5b600080546001810182559080527f290decd9548b62a8d60345a988386fc84ba6bc95484008f6362f93160ef3e56301610137828261040c565b5050565b6000818154811061014b57600080fd5b9060005260206000200160009150905080546101669061036a565b80601f01602080910402602001604051908101604052809291908181526020018280546101929061036a565b80156101df5780601f106101b4576101008083540402835291602001916101df565b820191906000526020600020905b8154815290600101906020018083116101c257829003601f168201915b505050505081565b7f4e487b7100000000000000000000000000000000000000000000000000000000600052604160045260246000fd5b60006020828403121561022857600080fd5b813567ffffffffffffffff8082111561024057600080fd5b818401915084601f83011261025457600080fd5b813581811115610266576102666101e7565b604051601f82017fffffffffffffffffffffffffffffffffffffffffffffffffffffffffffffffe0908116603f011681019083821181831017156102ac576102ac6101e7565b816040528281528760208487010111156102c557600080fd5b826020860160208301376000928101602001929092525095945050505050565b6000602082840312156102f757600080fd5b5035919050565b600060208083528351808285015260005b8181101561032b5785810183015185820160400152820161030f565b5060006040828601015260407fffffffffffffffffffffffffffffffffffffffffffffffffffffffffffffffe0601f8301168501019250505092915050565b600181811c9082168061037e57607f821691505b6020821081036103b7577f4e487b7100000000000000000000000000000000000000000000000000000000600052602260045260246000fd5b50919050565b601f82111561040757600081815260208120601f850160051c810160208610156103e45750805b601f850160051c820191505b81811015610403578281556001016103f0565b5050505b505050565b815167ffffffffffffffff811115610426576104266101e7565b61043a81610434845461036a565b846103bd565b602080601f83116001811461048d57600084156104575750858301515b7fffffffffffffffffffffffffffffffffffffffffffffffffffffffffffffffff600386901b1c1916600185901b178555610403565b6000858152602081207fffffffffffffffffffffffffffffffffffffffffffffffffffffffffffffffe08616915b828110156104da578886015182559484019460019091019084016104bb565b508582101561051657878501517fffffffffffffffffffffffffffffffffffffffffffffffffffffffffffffffff600388901b60f8161c191681555b5050505050600190811b0190555056fea26469706673582212201771f7d797ea5e4af4515439bf454771e225dffbf33b92c2f72a35fcef48a95564736f6c63430008150033","linkReferences":{}},"methodIdentifiers":{"addProviderRetrievalResultStats(string)":"bec0bf8e","providerRetrievalResultStats(uint256)":"c295be71"},"id":23}